:020000041000EA
:1000000000B5324B212058609868022188439860DF
:10001000D860186158612E4B002199600221596106
:100020000121F02299502B49196001219960352056
:1000300000F044F80222904214D00621196600F024
:1000400034F8196E01211966002018661A6600F04E
:100050002CF8196E196E196E052000F02FF8012189
:100060000842F9D1002199601B49196000215960AB
:100070001A491B48016001219960EB211966A021F2
:10008000196600F012F800219960164914480160C1
:100090000121996001BC002800D000471248134993
:1000A000086003C880F30888084703B5996A0420EC
:1000B0000142FBD001200142F8D103BD02B5186610
:1000C0001866FFF7F2FF186E186E02BD00000240BE
:1000D000000000180000070000035F00212200005C
:1000E000F4000018222000A00001001008ED00E03C
:1000F00000000000000000000000000074B24E7A12
:1001000000200420F7010010C3010010C5010010F9
:10011000C1010010C1010010C1010010C101001097
:10012000C1010010C1010010C1010010C701001081
:10013000C1010010C1010010C9010010CB01001065
:10014000CD010010CD010010CD010010CD01001037
:10015000CD010010CD010010CD010010CD01001027
:10016000CD010010CD010010CD010010CD01001017
:10017000CD010010CD010010CD010010CD01001007
:10018000CD010010CD010010CD010010CD010010F7
:10019000CD010010CD010010CD010010CD010010E7
:1001A000CD010010CD010010CD010010CD010010D7
:1001B000CD010010CD010010CD010010CD010010C7
:1001C00000BE00BE00BE00BE00BE00BEEFF3058054
:1001D000103800BEF2EB887184650010AC65001029
:1001E0003402001090A31AE700201F49086006C8D7
:1001F00081F3088810471D48006800282FD10DA4FE
:100200000ECC002902D000F012F8F9E71849194A7B
:10021000002000E001C19142FCD1174988471749ED
:1002200088471749884700BEFDE701C901C29A42C5
:10023000FBD37047AC650010C00000206C020020AA
:1002400058670010000004200000042058670010C8
:10025000001004200010042000000000704709482E
:1002600004F010FD0047000008ED00E0000000D0A1
:100270007002002054060020C9240010550300100D
:10028000C12500105756000006005250ABB3605312
:100290001C65001006005250861C03022C650010DD
:1002A000060052505422A29D3465001005005250A1
:1002B000DE65F46858670010F8B5C0460448054B81
:1002C00010B5834203D0044B002B00D0984710BDDB
:1002D0006C0200206C020020000000000648074964
:1002E000091A8910CB0F591810B5491003D0044BC7
:1002F000002B00D0984710BD6C0200206C0200203B
:100300000000000010B5074C2378002B09D1FFF73F
:10031000D5FF054B002B02D0044800E000BF0123AD
:10032000237010BD7003002000000000606000100A
:10033000054B10B5002B03D00449054800E000BF71
:10034000FFF7CCFF10BDC046000000007403002082
:1003500060600010F0B5D6464F464646C0B582B044
:1003600005F042FDEA4DEB4C2B68EB482268184340
:10037000EA4B286013431843236000F0B5FB226862
:10038000D0242406236A2968534011430B40E362BA
:10039000236901211340E3610022122000F08AFB4F
:1003A000002201211B2000F085FB012200211320E7
:1003B00000F080FB01220021142000F07BFB0122D1
:1003C0000021022000F076FB01220021032000F032
:1003D00071FB01220021042000F06CFB01220021AE
:1003E000052000F067FB01220021062000F062FBDF
:1003F00001220021072000F05DFB012200210820DE
:1004000000F058FB80239B0463610021FA2001F077
:100410005FF8C34805F010FCC24805F00DFCC24B64
:10042000C24F98468023DB009A466368C0481B0190
:1004300000D5C04805F0CCFC6368BF485B0300D51D
:10044000BE48802605F0C4FC7605BD49404605F04F
:10045000BFFC66610A2001F04DF8FA20400001F06F
:1004600049F8A661002001F045F80A2005F09AFB42
:10047000B449404605F0ACFC80239B0363610A202D
:10048000994601F037F82A686368AF4E13401900A7
:10049000802231405203914229D09946AB49AC4861
:1004A00005F096FC4B464A4648460121800C1B0D40
:1004B000D20C0B400A4001404846092501264F4610
:1004C0008005000E0090A34805F082FCA24C390084
:1004D000E94020003140013D05F07AFC012DF6D1C4
:1004E0000A2005F05FFB9D4801F004F8FBE79749FF
:1004F000380005F06DFC4B460020A36100F0FAFFC8
:100500009749404605F064FC8023DB0363610A20C1
:10051000994600F0EFFF2A686368134019008022B3
:1005200031401203914228D099468E49884805F0FF
:100530004FFC48464B464A464946012509264F4648
:100540008008C0B21B0DD20C890C00902B402A40B1
:100550002940804805F03CFC7F4C3900F1402000E8
:100560002940013E05F034FC012EF6D10A2005F0A9
:1005700019FB7A4800F0BEFFFBE77A49380005F026
:1005800027FC4B460020A36100F0B4FF76494046AB
:1005900005F01EFC53460A20636100F0ABFF2A6899
:1005A000636813401A003240042A28D099466F49E4
:1005B000674805F00DFC48464B464A46494601252A
:1005C00009264F468008C0B21B0DD20C890C009042
:1005D0002B402A4029405F4805F0FAFB5E4C390069
:1005E000F14020002940013E05F0F2FB012EF6D13A
:1005F0000A2005F0D7FA594800F07CFFFBE75B4979
:10060000380005F0E5FB53460020A36100F072FFBF
:100610005749404605F0DCFB80231B0163610A203B
:10062000994600F067FF2A68636813401A00324059
:10063000082A28D099464F49454805F0C9FB484645
:100640004B464A464946012509264F468008C0B216
:100650001B0DD20C890C00902B402A4029403D48AC
:1006600005F0B6FB3C4C3900F14020002940013E2A
:1006700005F0AEFB012EF6D10A2005F093FA3748BB
:1006800000F038FFFBE73B49380005F0A1FB4B4683
:100690000020A36100F02EFF3749404605F098FB8B
:1006A00080235B0163610A20994600F023FF2A68DA
:1006B000636813401A003240102A61D099462F49CE
:1006C000234805F085FB48464B464A4649460125E6
:1006D00009264F468008C0B21B0DD20C890C009031
:1006E0002B402A4029401B4805F072FB1A4C390068
:1006F000F14020002940013E05F06AFB012EF6D1B1
:100700000A2005F04FFA154800F0F4FEFBE7C0465A
:10071000140400201C040020FC031C0800FC6316C9
:100720009C600010B0600010D0600010E460001009
:10073000786000106C6000109460001088600010F9
:10074000C8600010D4600010FC031800DC600010CA
:10075000F06000100461001034610010A0860100F8
:10076000E8600010386100103C6100104461001026
:100770004C610010546100105C6100106461001055
:10078000B149380005F024FB4B460020A36100F07E
:10079000B1FEAE49404605F01BFB80239B0163611F
:1007A0000A20994600F0A6FE2A68636813401A00E2
:1007B0003240202A28D09946A549A64805F008FBD2
:1007C00048464B464A464946012509264F46800879
:1007D000C0B21B0DD20C890C00902B402A4029403E
:1007E0009D4805F0F5FA9D4C3900F1402000294064
:1007F000013E05F0EDFA012EF6D10A2005F0D2F9FE
:10080000974800F077FEFBE79149380005F0E0FAE1
:100810004B460020A36100F06DFE9249404605F072
:10082000D7FA8023DB0163610A20994600F062FE5B
:100830002A68636813401A003240402A28D099463B
:100840008949844805F0C4FA48464B464A46494619
:10085000012509264F468008C0B21B0DD20C890C19
:1008600000902B402A4029407B4805F0B1FA7B4C90
:100870003900F14020002940013E05F0A9FA012E7F
:10088000F6D10A2005F08EF9754800F033FEFBE73B
:100890007549380005F09CFA4B460020A36100F032
:1008A00029FE7249404605F093FA80231B026361DA
:1008B0000A20994600F01EFE2A68636813401A0059
:1008C0003240802A28D099466949624805F080FA6A
:1008D00048464B464A464946012509264F46800868
:1008E000C0B21B0DD20C890C00902B402A4029402D
:1008F000594805F06DFA594C3900F1402000294063
:10090000013E05F065FA012EF6D10A2005F04AF9FC
:10091000534800F0EFFDFBE75549380005F058FA61
:100920004B460020A36100F0E5FD5249404605F02A
:100930004FFA80235B0263610A20994600F0DAFDDA
:100940002A686368134019008022314052009142A6
:1009500028D0994648493F4805F03AFA48464B4660
:100960004A464946012509264F468008C0B21B0D5C
:10097000D20C890C00902B402A402940364805F0C3
:1009800027FA364C3900F14020002940013E05F09D
:100990001FFA012EF6D10A2005F004F9304800F0C4
:1009A000A9FDFBE73449380005F012FA4B46002058
:1009B000A36100F09FFD3149404605F009FA80230C
:1009C0009B0263610A2000F095FD2A68636813406A
:1009D00080221E409200964228D0994628491D4800
:1009E00005F0F6F948464B464A4649460125092690
:1009F0004F468008C0B21B0DD20C890C00902B40D2
:100A00002A402940144805F0E3F9144C3900F1401C
:100A100020002940013E05F0DBF9012EF6D10A2025
:100A200005F0C0F80E4800F065FDFBE714493800FA
:100A300005F0CEF980239B02A361002000F05AFD4F
:100A4000380005F0F9F8F0E4646100106C61001002
:100A500074610010F0600010046100103461001037
:100A6000A08601007C610010846100108C61001080
:100A7000946100109C610010A4610010AC61001032
:100A8000B4610010094A830094464022634410B5C3
:100A90001C68C0006240C0241440802252011343ED
:100AA0001C60034B9C466044416010BD04C0014083
:100AB000004001400B4B80009C46604400290DD053
:100AC0000C210823002A00D00B00026853400C229E
:100AD0001A4080235B011843026070470421002301
:100AE000F0E7C04604C001404021F0B5D6464F466D
:100AF000464688468031C0B5D0258C468027BB3914
:100B0000002301248A46104A2D067F01044211D099
:100B1000210099404646A962A96111687140664664
:100B200031403E0016433160084ED900B14656466A
:100B300049440E600133400804321E2BE6D11CBC30
:100B400090469946A246F0BD04C0014004400140D1
:100B5000024B18688007C00F7047C04600C00640AF
:100B6000F8B5EFF3108772B60D4E3368002BFCD04A
:100B7000BFF35F8F0725CB08C01801230D40AB40A2
:100B80001D000478254007D123430370BFF35F8F16
:100B9000356087F31088F8BD100001F015FDC046E0
:100BA0002C0100D00021044B044ABFF35F8F02C325
:100BB0009342FAD17047C046000100D0800100D0B6
:100BC000044A1078431CDBB2172B00D91023137092
:100BD0007047C0469801002001238340002902D1BC
:100BE000034A13607047034A1360034A1360F9E72E
:100BF00080E100E080E200E000E100E0024B103024
:100C00009B688000C058704700ED00E070B50D0093
:100C1000EFF3108672B60F4A1368002BFCD0BFF3B7
:100C20005F8F0D4B10309B6884001B590B4A934219
:100C300003D09D4201D001F0DFFC074B9B681D51A2
:100C4000BFF35F8FBFF35F8F0022024B1A6086F302
:100C5000108870BD240100D000ED00E0CD0100102F
:100C6000F0B54546DE4657464E46E0B50D0083B02A
:100C7000EFF3108972B6594A1368002BFCD0BFF30A
:100C80005F8F574B9A68030010339E009459554A62
:100C90009046944232D0AC424ED0534FE21B2F2AA2
:100CA0002CD80122824092465146504A1268114087
:100CB000019151464E4A1160BFF35F8FEFF30582F9
:100CC0009346002A2DD10123220006219A439368DE
:100CD00051569D420AD16BE04B005B1806219B00E8
:100CE000FB1898685956A84228D01A000029F3DA50
:100CF000019B002B1AD152463D4B1A60384B9B6822
:100D00009C51BFF35F8FBFF35F8F0022334B1A609C
:100D100089F3108803B03CBC90469946A246AB4686
:100D2000F0BD9342CFD001F067FCCCE75246314B87
:100D30001A602E4B1A60E1E71400DFE7002924DB7C
:100D40004A00501880003D188046A8689860E879ED
:100D5000D871062028569871A8797F2813D8AD88B5
:100D6000F81A6D052D1545444019E0250005400D84
:100D70002D022843988052181F4B9200BF181A78F2
:100D80001970BA71B4E71D48F4E75946002917D124
:100D9000002A13D0FF3191711949918016490A78C0
:100DA0009A71184ADB1B5B415A43120D0A709FE788
:100DB00013000029C4DA5A46002A01D14446EDE75F
:100DC000114A1249D21A083A5002400D0143998043
:100DD0000F4952080A43DA808AE7C046240100D04E
:100DE00000ED00E0CD0100109C01002000E100E0DA
:100DF00080E100E080E200E04D04002001BD000041
:100E000001BDFFFFAAAA0000D601002000F0FFFFED
:100E100000F8FFFFF0B5EFF3058101240443EFF381
:100E2000108672B6214A1368002BFCD0BFF35F8F87
:100E30001F4B204A0500ED1A6D416A43120D1E4DED
:100E40008900AF6852B27F58A7421CD0062159567C
:100E5000914226D012215956914224D01E21595632
:100E6000914214D02A2159560324914210D0134B99
:100E700019781A708171BFF35F8F00220B4B1A60D3
:100E800086F31088F0BDAB680D4C5C50EFE7022490
:100E90006100091989005B18FF219971094999803E
:100EA000E5E70024F4E70124F2E7C046240100D07E
:100EB0009C010020AAAA000000ED00E04D040020E3
:100EC000CD01001001BDFFFF054B064A1360064A25
:100ED000136053609360D3601361536193617047F3
:100EE0008080808000E400E004E400E0024B9C4647
:100EF00061448900016070474000003410B504006F
:100F0000FFF75EFE01002000FFF7F0FFFF232371D3
:100F1000BFF35F8F10BDC04610B50400FFF750FE51
:100F200001002000FFF7E2FFFF23A380BFF35F8FE4
:100F300010BDC04683680B4810B5844661446244C6
:100F4000090112019A18591854684B6801209C42F3
:100F500001D802D00020C0B210BD12680B689A42BE
:100F6000F9D8F7E7FFFFFF0F0A4B1968EFF310807E
:100F700072B60A68002AFCD0BFF35F8F1B68BFF30C
:100F80005F8F00221A6080F3108840BF002000218C
:100F90007047C04634040020F8B557464E464546D3
:100FA000DE46E0B51F000CAB1D780DAB1B7881460B
:100FB0009A46036816009846002D3BD1987B00287E
:100FC00032D042464546440012682418033C1219A8
:100FD00051780300A973002900D1E97300210500AD
:100FE00091705170117029E0D31814199D702278F6
:100FF000002A00D05A705B46237043465D734B460F
:101000003200187D3B0000F087FC041E07D05346D9
:10101000002B04D14B462900186800F037FE0E9BC8
:10102000002B44D028001C703CBC90469946A24638
:10103000AB46F8BD2B006C006419033C1D4A944676
:101040004A469268634494461B010A9A63449A6034
:101050000B9A1E605F60DA60434600221B681B1912
:101060009A705A701A7043465B7B9B46002BC4D023
:1010700043462A00986859465B6898475B46424653
:101080005B005B44033B12680028ADD0D3181419F1
:101090005A46A2701A78002A07D11D705A46434654
:1010A00028005A73AB45BFD1A9E76270F5E7280065
:1010B000BAE7C046FFFFFF0FF0B5DE46454657468C
:1010C0004E46694B8200E0B5D55800238BB009909D
:1010D0009B462AE033003B4303D02B69002B00D012
:1010E0008EE02B68DA7B002A07D051008A18196835
:1010F0008C4649466244033A51709A7B002A01D1DA
:101100004A469A734A46DA73EA684B469446013B6C
:1011100063441A7801321A705B462B616B68BFF327
:101120005F8F5A461A6084F3108800F063FB6A6888
:10113000EFF3108472B61368002BFCD0BFF35F8FFF
:101140002B689C465B7B9946002B4FD0AA68474B87
:1011500090464B441B01984443461A685B6816004E
:101160001F00361A8F41002F56DD099800F0D4FB7E
:1011700000230022984600230692079300239A46F4
:101180006B68BFF35F8F5A461A6084F3108853462A
:10119000002B5ED0089B414618024B461843D047AF
:1011A0006A6806000F00EFF3108472B61368002B14
:1011B000FCD0BFF35F8F002F00DB8BE72B69002B88
:1011C00000D18EE7069A079B921BBB41002B1FDBC9
:1011D00059460491012103914946029141460191EA
:1011E000514628000091FFF7D7FE95E70023002223
:1011F0009846002306920793002300209A46BFE7F3
:1012000000F0F8FA32003B0012184B41002BDFDAF5
:101210000122174B5242DBE7002F01D1002EA4D14F
:101220000021604600F088FC43461A685B6806921D
:10123000079343469B689A464346DB689846EB68AB
:101240004B44013B1B7808931B0218432861002084
:1012500096E7002800D068E70BB03CBC9046994662
:10126000A246AB46F0BDC04620040020FFFFFF0FA2
:10127000FFFFFF7F10B5144C6368002B04D00A21D8
:101280001248FFF733FE10BD2300114A10212068D9
:1012900000F034FC032000F0A1FA032000F0A8FBCA
:1012A0000C49032000F0F2FAFFF78AFC0A4B9C4637
:1012B00003232375D0231B061B6860446375074B0B
:1012C00080006060DC60DAE7E40100203404002084
:1012D000350F0010B9100010400000342004002029
:1012E000F0B557464E464546DE460400E0B50D00D3
:1012F00006267642F71736196F4185B08F4200D91E
:1013000088E000D183E000F075FA32003B00121A49
:101310008B41002B00DC88E0684B99465A68EFF35C
:10132000108B72B61368002BFCD0BFF35F8F4B4657
:101330001B6898469B7B9A46002B00D17BE05B00A4
:1013400053444246033B9C46414612680093624424
:1013500053788B73002B00D1CB73002349469370D5
:10136000537013708968564A8C465244554912018D
:101370006244166057609160D360009942468C4683
:101380001268624493705370137043465B7B0393FF
:10139000002B00D16FE019004046434652465B687F
:1013A00080689847039B9C465A006244033A002891
:1013B00054D0009940468C46036803999A186344B8
:1013C00099701178002900D0597053461370424625
:1013D000039B53739A4551D04B465B68BFF35F8FB5
:1013E00000221A608BF31088BC46B0460094019529
:1013F00000266546344F354A7B6A9D424CD8B96A0F
:10140000414501D29D4247D0009C019D1BE0864290
:1014100000D878E70026002700F0ECF932003B0006
:10142000121A8B41002B00DD76E7002B0BD1002A2E
:1014300000D071E707E04B465B68BFF35F8F524611
:101440001A608BF310882000290000F00FFA05B015
:101450003CBC90469946A246AB46F0BD434619684F
:10146000009B8A18CB18514691701978002900D03A
:101470005170039A1A70434652465A734B463200D3
:10148000187D3B0000F048FA0028A5D04B46514695
:10149000186800F0FBFB9FE71168EFF3108072B64D
:1014A0000B68002BFCD0BFF35F8F1368BFF35F8F17
:1014B0001E6080F3108820BF9EE7C046E401002034
:1014C000FFFFFF0F690F00100040054034040020AB
:1014D00070B504000D0000F08DF900196941002974
:1014E00002DA012002494042FFF7FAFE70BDC04611
:1014F000FFFFFF7F70B5060000F07CF9FA220400C0
:101500000D00920000233000002104F00DFA0019B4
:101510006941002902DA012002494042FFF7E0FE5A
:1015200070BDC046FFFFFF7FF0B5EFF30583574660
:10153000DE464E464546E0B50C0083B00700002B62
:1015400017D00021744A8846536AA34209D3012167
:10155000926A8846BA4204D21C1B631E9C41E3B2C5
:101560009846404603B03CBC90469946A246AB46DE
:10157000F0BD6A4D6A68EFF3108A72B61368002BEB
:10158000FCD0BFF35F8F2B689E7B9846002E4ED019
:1015900073009B19033B9946434641461B68B3467B
:1015A0004B445A788A73002A00D1CA7300229A7079
:1015B0005A701A70A9685A4B8C46F3181B01594986
:1015C00063441F60DA605C60996043461B684B446B
:1015D0009A705A701A7043465B7B002B00D18AE0E8
:1015E00019000193434640465B6832009C46806880
:1015F000E047019A944653006344DA1E4346196853
:1016000000286ED08B18624649448A701A78002AE6
:1016100000D04A7042461E70019B53739E426CD0AC
:1016200000239846EB689B19013B1B7802E00023DE
:101630009B4698466A68BFF35F8F002111608AF36A
:101640001088002E33D04246002A30D15A461B0261
:10165000134320BF6968EFF3108672B60A68002A48
:10166000FCD0BFF35F8FDAB29446FF2228681A409D
:10167000417B614529D051008A46016892448946E0
:10168000514649440339897800291ED12A69934279
:1016900000D129616B68BFF35F8F00221A6086F367
:1016A00010881D4A536AA34200D25AE74FE700212F
:1016B000194A8846536AA34200D252E7926A01311E
:1016C0008846BA4200D247E74BE7E9681B0A8946D9
:1016D0004A44013A12789A42DCD1614600F0D6FAC7
:1016E000D8E74B468A18CB1896701978002900D095
:1016F0005170019A1A7043465E73287D3A002300A8
:1017000000F00AF98046002800D189E731002868F6
:1017100000F0BCFA86E7C04600400540E401002026
:10172000FFFFFF0F690F0010F8B5EFF30582CE46FB
:101730004746100080B51038EFF3108C72B6204C7D
:101740002368002BFCD0BFF35F8F01231900814079
:101750001C4D1D4E716329601C4DA9462D782F002C
:10176000C7403B4008D1BFF35F8F23608CF31088E4
:101770000CBC90469946F8BD736A154E9846830096
:101780009E59B0450ED3134A8D439B584A46157057
:10179000BFF35F8F002222608CF31088002BE7D00C
:1017A0009847E5E70C4B9200984642441368136053
:1017B000BFF35F8F002323608CF31088D8E7C04607
:1017C000280100D03C700540004005404E04002038
:1017D000380400208C030020D03F054010B50100E4
:1017E000024A0348FFF7BCF910BDC046586200101A
:1017F0004C040020044A516A00E01900906A536AC0
:101800009942FAD17047C04600400540164A70B56B
:10181000546A00E01C00956A536AA342FAD12A0078
:1018200023008018594105000E008C4216D813D0B1
:1018300032000D4C636A9342FCD39A420BD10A4B9F
:101840002800996AA94203D305E0996A814202D22D
:10185000596A9142F9D070BD8242E9D9012201252D
:101860006D42EE175242E4E700400540064A536AD3
:101870009942FCD807D1044B02E05A6A914202D146
:101880009A6A8242F9D370470040054070B504005F
:101890000D00EFF3108672B61A4A1368002BFCD0C5
:1018A000BFF35F8F002D1BD02000FFF7A7F916496B
:1018B00088420AD02000FFF7A9F901212000FFF794
:1018C0008BF90123A340114A1360114BA400E5508A
:1018D000BFF35F8F00220B4B1A6086F3108870BD38
:1018E0000B4BA200D5500122A2400A4920000B78E0
:1018F00093430B700449FFF7B3F900212000FFF771
:101900006BF9E5E7280100D0291700103860054081
:101910008C0300204E040020F0B5D6464F464646C4
:101920002E4CC0B5656A00E00D00A66A616AA94246
:10193000FAD1AB4248D9EFF3108972B6284C21682E
:101940000029FCD0BFF35F8F264901268C46097819
:1019500086400F00884661463743FFB20F70041D72
:101960001E49A400204D4E636250840063510D6AED
:10197000002435421BD04D6A00E025008C6AA24647
:101980004C6AAC42F9D1AB4224D801D1524521D89E
:10199000474521D0114B154A1E625E631F23184034
:1019A0001E3B834013606346424601241A70BFF316
:1019B0005F8F00220A4B1A6089F3108820001CBC3C
:1019C00090469946A246F0BDAB4201D1B242B2D890
:1019D0000124F3E70024EAE70124E8E7004005409A
:1019E000280100D04E0400203804002080E200E0EE
:1019F00010B5EFF3108472B60A490B68002BFCD0C7
:101A0000BFF35F8F01238340074A084813620278BF
:101A10009A430270BFF35F8F00230B6084F310883A
:101A200010BDC046280100D0004005404E040020F3
:101A3000F8B54746CE4680B54C0003686418033CB1
:101A40001A19567807000D00002E04D128000CBC8E
:101A500090469946F8BD7100891903398846434478
:101A600059788946002159705170002D11D07B683A
:101A700032002900806898473B68002832D01A1944
:101A800043449D701178002900D059701670A0460B
:101A900000E035004B46002BD8D049463800FFF710
:101AA000C7FF041ED2D002007B682900B86898479F
:101AB00063001B19033B3A68002809D1D31842443C
:101AC00094701978002900D051701D702500BDE771
:101AD0004146D31851189D700A78002A00D05A70D8
:101AE0000C70B3E742461C199A18A6701378002BA5
:101AF00000D0637015703500CCE7C04610B5836028
:101B00000023CCB243730133047342608373C47304
:101B10000068012C06D9421C0133DBB2137003327A
:101B20009C42F9D8FF2319404B0059180023401854
:101B30000338437010BDC046F0B54E465746454683
:101B4000DE46E0B5467B03687400A419033C1A190D
:101B5000177883B005008946002F23D100290ED0C5
:101B6000E87B002804D041000918591803394E7049
:101B7000A97B002900D1AE73EE73002F0AD1002398
:101B8000300053706F7303B03CBC90469946A24638
:101B9000AB46F0BD7900C91903398846002143449A
:101BA0009970ECE77900C9190339884659184878C3
:101BB0008246002803D149460029EFD0D0E74200F1
:101BC0005244033A93465B445A78019200225A7079
:101BD0004A706B6802003900A86898472B68002893
:101BE00030D1414650465A4659189A188870107894
:101BF000002800D048701770D8465746019A002A2E
:101C00002DD011002800FFF713FF8246002825D0B1
:101C1000020039006B68A868984753465900514440
:101C200003392B6800281CD04246591898188F7029
:101C3000027894461A196446002C00D04C70514624
:101C40000170B8E75946424659189A188F701078B3
:101C5000002800D0487051461170CFE72B681A1940
:101C6000A9E75A18984493465046424690705A46FF
:101C70001278944660461A19002802D040466446FD
:101C80004470584688460770574694E7F0B5454675
:101C9000DE4657464E46E0B50C00050083B00020F6
:101CA00000296CD04E0076182A686F7B033E91198C
:101CB000A74243D08B78002B61D05800C318033B58
:101CC000D3181878A04263D1487818700023087898
:101CD0009C468B704B708046002867D1E87B0028BB
:101CE00004D043001B18D318033B5C70AB7B002B64
:101CF00000D1AC734346EC73002B53D05C0000233F
:101D00004444033C121993704B70002F00D1F4E04F
:101D100042466B683900A86898477B00DB19033B93
:101D20002A68002800D18CE01419D318A7701A78FB
:101D3000002A00D090E042461A7034E00B780193FC
:101D4000002B00D08AE0E87B002804D043001B1859
:101D5000D318033B5F70AB7B002B00D1AF730198AE
:101D6000EF73002806D0844643006344D218002352
:101D7000033A9370002301204B70019B6B7303B0F7
:101D80003CBC90469946A246AB46F0BD00289DD08B
:101D900043001B18033BD3185878A042F6D148786B
:101DA000587093E74B706F730120E8E740004044A0
:101DB00003388146101843789A46002B00D18DE7EE
:101DC0005F005744033FD219537841469B46634610
:101DD000537043705246A8686B6898472A68002879
:101DE00000D190E041464B46D719D318B970197805
:101DF000002900D0797051464F4619705B46002B80
:101E00007ED059462800FFF713FE8146002876D081
:101E100002006B684146A86898474B465B004B44FC
:101E2000033B2A6800287BD04146D3189970D71904
:101E300038789119002800D058704B463B706F7B62
:101E40004CE71419D31842469A702278002A00D021
:101E50005A7027704746A6E762706CE71C00A446DC
:101E60005B006344033B9846D3185C78A146002C82
:101E700000D168E76100494403398A4652445178E9
:101E80005070587022008B46A86861466B686446A3
:101E900098472A68002865D0514643465118D31800
:101EA0008C701878002800D048704946C2461970D6
:101EB0005B46002B43D059462800FFF7B9FD80460A
:101EC00000283BD0019C02006B682100A86898475D
:101ED00043465B004344033B2A68002831D0514607
:101EE000D3189C70501801788C4664469119002CC8
:101EF00000D05C704346037025E7474653E72A68E5
:101F000091196F7BEAE64B465046D318D119987069
:101F10000878002800D058704346D0460B706DE713
:101F20004946D719B970D31818789119002800D0EC
:101F30007870404618706F7BC846CFE62A689119C2
:101F400001E7514650184146D318817019788C46E4
:101F500064469119002C00D04470019818704346D3
:101F60000193F0E65346D11843464846D31898707B
:101F70000878002800D05870019B0B704B460193E5
:101F800096E7C046F8B5CE464746040080B5062021
:101F90000D0000F027FA0026002800D195E0504BF4
:101FA0005049E3185A1E93418022120494465B4222
:101FB0004D4A9B05634413604C4A136018008A68BD
:101FC0009043FBD1464B8021E3185A425341484A83
:101FD0005B0049000620995200F004FA2900C00075
:101FE00002F0A6FEC3090DD0424A934200D971E027
:101FF0007F2210409A019046013040081A00804428
:10200000030002E0402290463F3A6262A362266BE0
:10201000F30718D52200C02330329B011343364A00
:1020200006201A60656AA36AAD01ED1800F0DAF9BE
:10203000324902F07DFEAD020100280002F078FE78
:102040000021FFF7E3FB27008025E36A00232C37FC
:102050006D013D432B600620266300F0C3F9414625
:10206000800002F065FE236B06009846DB071BD557
:102070002200C02330329B0113431F4A06201A60FE
:10208000636AA26A9B019946914400F0ABF94B4602
:102090001A499B02994602F04BFE0100484602F0A5
:1020A00047FE0021FFF7B2FB6022E36A5A406E232D
:1020B00013402B6043462363802310229B013B4344
:1020C0001A600D4B23630323A36430000CBC9046BD
:1020D0009946F8BD0A4B0B4A9846002395E7C0463F
:1020E0000080FCBF00C0004000E0004000F0004065
:1020F00050040020FEFF0000010300004E0E00000F
:10210000C0FF3F00FFFF000030B50C2083B000F09F
:10211000BFF9FEF71DFD00280ED09B4B9B4A1A60AD
:102120005A609A60DA601A615A619A61DA611A62D9
:10213000974A5A6203B030BD964CA06700F0B0F9E0
:102140000122954B1A60636C012BFCD10322934B47
:102150001A60904A936B012BFCD101330093904A93
:10216000043301218F4800F043F905238E4A009380
:1021700001218E4800F03CF98D4B5A68FF2A02D8A5
:10218000802252005A6080227F4C844B21691201C8
:10219000874D1A60002900D0EDE0E021844B022039
:1021A0001A681140802252012A4311601968484080
:1021B00003210140116004219A681142FCD0802261
:1021C000802192012A4309011160802252005A6045
:1021D000784B2361784B5968FF2900D8C9E0032266
:1021E0006D4B75481A60012103009A681142FCD0BA
:1021F000E0251A68154080225201024315601B68D1
:102200004B4003211940116002216B4A9368194227
:10221000FCD0802380219B010343090119608021A8
:10222000664B490051606361654B5A68FF2A00D8CC
:1022300059608022634BE1691201614D1A600029E7
:1022400007D0606902F074FD431C5800C0180338C1
:10225000FDD2E0225A490B681A4080235B012B43D0
:102260001A60802380229B012B4312011A60802276
:10227000464B52004A60E361534B5968FF2900D82E
:102280005A608022514B216A12014F4D1A60002979
:1022900007D0606902F04CFD431C5800C018033899
:1022A000FDD2E02248490B681A4080235B012B4392
:1022B0001A60802380229B012B4312011A60802325
:1022C0005B004B60314B424A2362424B596891425A
:1022D00001D801325A6080223F4B616A12013D4DA4
:1022E0001A60002907D0606902F022FD431C5800E3
:1022F000C0180338FDD2E02236490B681A4080230B
:102300005B012B431A60802380229B012B43120127
:102310001A608023DB024B601D4B63622F4B5A68AF
:10232000FF2A02D8802252005A6080222C4BA169D9
:1023300012012A4D1A60002907D0606902F0F8FCEA
:10234000431C5800C0180338FDD2E02223490B6813
:102350001A4080235B012B431A60802380229B015B
:102360002B4312011A6080235B004B60134BA36167
:10237000E0E65A6033E7606902F0DAFC431C58007B
:10238000C0180338FDD208E7A4030020006CDC026B
:102390001BB70000008000403CB0004030B000405F
:1023A000002F685900800240008C864700C0024020
:1023B00030800040001BB7003C800040405973074C
:1023C0005480004054B000406080004060B0004045
:1023D000FFFF03006C8000406CB00040488000406C
:1023E00048B00040014B8000C0587047A403002053
:1023F000F8B50400214817001E000D0002F098FCFB
:102400000100380002F094FC069A330412031343CF
:102410002268002A21DB1A4A1A4EA21851424A4168
:10242000802149018C4652420A40174962440A60A1
:1024300016490A601700B1688F43FBD1C021221DE5
:102440008901114321222560A0600A602268002AC8
:10245000FCDAE36008230B60F8BD3F2221680A40E4
:10246000AA42D8D1A2681205120D8242D3D1EE2120
:10247000E268C9020A409A42CDD1EDE7001BB700DD
:102480000040FDBF00C0004000E0004000F0004000
:1024900080239B001843014BD862704700800540A1
:1024A000AA23064A1B0113602F230549D360054B5D
:1024B00019605368002BFCDA7047C04600400240A8
:1024C00000B0FA00006002402D4B2E4A70B51A6031
:1024D0002D4A2E4B2E491A6010008B689843FBD171
:1024E0002C4C2D4DAC4209D20322231D0335ED1A8D
:1024F0009543ED1808CC9847AC42FBD1FFF704FE9A
:10250000264A224B1A60224A9368DB018033FBD1B2
:102510004022234B2348244D9A675A671A67DA668C
:10252000A84205D30EE0FEF7F7FC2000AC4209D22A
:10253000040003680834002BF5D1FEF7DFFC20000F
:10254000AC42F5D3194D1A4CC022A168280003F003
:1025500057FAA560FEF726FBFEF7B6FCFEF78AFEEB
:10256000144C154DAC4209D20322231D0335ED1A3C
:102570009543ED1808CC9847A542FBD170BDC046E5
:1025800000E00040BFCDFBFEFE7F3C0000F00040BD
:1025900000C000405802002068020020FFFFFF0139
:1025A00000F00140480200205802002000000020F6
:1025B00000ED00E0680200206C02002000BEFDE794
:1025C00010B5FFF7FBFFC0460FB400B5084883B055
:1025D00003F032FB049B002B07D005A918000191E2
:1025E00002F030FB034803F027FB0120FFF7E6FF72
:1025F00088620010E460001010B50148FFF7E4FFA6
:102600007C6200107047C04610B5002803D04A68AD
:102610000B681100984710BD10B5002801D003F0D9
:10262000C1FA10BDF0B557464546DE464E46E0B508
:1026300085B0984610AB1D78139B93469A460223AB
:10264000149A0F00134006000F9C12990193002B5F
:102650002DD1013313409C465346002B66D18C424A
:102660000DD21F2C00D912E10E9B30201B1902E065
:102670000133202C03D001341870A142F8D86346EE
:10268000002B14D0A24512D90E9B30201B191F2CF1
:1026900021D8AC461500524602E00133202C17D059
:1026A000013418709442F8D192462A006546D30648
:1026B0002ED5530519D4002C11D1119B102B00D10C
:1026C000D9E0022B1FD10E9960330B7001241AE060
:1026D00092462A006546D3063ED5530505D4A1424D
:1026E00000D19FE0544500D19CE0119B102B65D098
:1026F000022B06D11F2C65D862210E9B1B19197065
:1027000001341F2C5ED830210E9B1B191970013427
:102710001F2C57D8002D1BD1530700D570E013078D
:1027200050D520230E990B55013415E06346002B3C
:102730006BD0002D00D070E00C2313426DD18C4281
:10274000A0D21F2C90D953462024202BC3D8AEE70B
:102750002D230E990B550134930736D05B46039316
:102760001A000E9B029499464B46013C551C185D7D
:1027700039004346B0472A00002CF5D1039A029B4A
:10278000944663441D00019B002B0FD05B46EB1A5F
:1027900053450BD22A005D46541C43463900202085
:1027A000B0472200631B5345F6D32500280005B02F
:1027B0003CBC90469946A246AB46F0BD930641D537
:1027C0001F2C52D95D46930712D1544538D25B462F
:1027D00053441B1B0F941C000F9B5A469946551CD3
:1027E000434639002020B0472A00A542F7D14C4685
:1027F000002CC8D00E9B039502942A009946B3E79B
:102800002B230E990B550134A6E78C4200D34EE7DB
:102810001F2C00D828E7202449E701235B42994672
:10282000CA448CE7631E002B15D1119B102B19D0C5
:10283000022B00D147E730230E9901240B7069E782
:102840005D46D5E71F2C00D986E778210E9B1B1922
:102850001970013455E71199023C1029AED01C00C3
:102860000B0045E793060DD5002458210E9B1B193C
:102870001970013445E7930604D558230E990124B5
:102880000B7040E778230E9901240B703BE720245E
:10289000F5E6C046F0B54546DE4657464E46E0B53D
:1028A0009BB09846259B249C1D00089009910A9294
:1028B0000C9300220023200029000B9402F0E6FC78
:1028C000002800D0A7E10B9A0C9B92469B468023E0
:1028D000289ADB001A400E9201D10623269380230A
:1028E000289A1B011A4056465B460D92334300D18D
:1028F00061E15B465800CC4B400D9C46604402F0C1
:10290000EBFCCA4ACA4B02F07EFCCA4ACA4B02F030
:1029100053FC5B46C94A1B031B0B1A4304000D0002
:10292000C74B11005046002202F03DFCC54AC64B81
:1029300002F069FC02000B002000290002F03CFCC0
:1029400002F0E2FC814602F0C7FCC04AC04B040022
:102950000D0002F058FC0022BE4B02F02DFC02F0EC
:10296000D3FCBD4A0600BD4B2000290002F04BFC01
:10297000040030000D000F9602F0AEFCB84AB94BCF
:1029800002F041FC02000B002000290002F00BFCC9
:1029900002000B0006000F0002F035FC32000400BC
:1029A0000D003B003000390002F006FC00221090C0
:1029B0001191AD4B2000290002F007FC0022AB4B27
:1029C00002F0FAFB02000B002000290002F0FDFBE0
:1029D0000022A74B02F0F0FB02000B0020002900B0
:1029E00002F0F3FB0D008021040032003B000020C8
:1029F000C90502F0D8FB02000B002000290002F0FC
:102A0000DBFB02000B001098119902F0DEFB0022A4
:102A10008A4B02F0D1FB974A0F9B944663440022F5
:102A20001B0502F0F0FB05000C0002000B005046F5
:102A3000594602F02BFC00280BD001235B429C4638
:102A4000280021000022894BE14402F0BEFB050072
:102A50000C004B46C62663339E42B6410D9B764220
:102A60000436002B00D0BCE0279B00279E4200D2FA
:102A70009F1B0223289A1A400D9203D07342734180
:102A80005B421F404B46002B07D0504659462A0058
:102A9000230002F09AFB82468B46002200230B980B
:102AA0000C9902F0F3FB002803D080210906594459
:102AB0008B4652465B465046594602F0FAFB0028C8
:102AC00000D044E101226C4B52425046594602F07C
:102AD000DDFB002800D0D7E0289A684B039713400D
:102AE0000493269B524602935B46099900920193F8
:102AF00008980A9A434600F0FFFC0200002E52D0CC
:102B00002020289B089C034059424B415B421840BF
:102B1000531C45309A4609994346A0474B46DA175D
:102B20009D18DB0F9946731E55409B46002412AE3C
:102B300002E03C00202F0DD028000A2102F0F8F816
:102B4000671C30313419217028000A2102F0F0F896
:102B5000051EEED1052306935B46059300230493DF
:102B60000A3303934B4601970096099F089E0293F0
:102B70005246434639003000FFF754FD0D9B0200DA
:102B8000002B10D00A99431A279898420BD98946EE
:102B90000500434639002020541CB0474B46220014
:102BA000E31A9D42F5D810001BB03CBC90469946F4
:102BB000A246AB46F0BD0D9B55465C46002B27D088
:102BC00000239946269B4B4500DDB1E00023269368
:102BD0008023289ADB001A43002328920026994676
:102BE00042E723002B43EDD0254A264B5046594659
:102BF00002F052FB002800D09FE0269B002B00D162
:102C000032E70E9B5A1E9341269AD31A26932BE73E
:102C10000426994628E78022120694460C9BA24679
:102C200063449B4653E6C04601FCFFFFFB799F507F
:102C30001344D33FB3C8608B288AC63F0000F03FDF
:102C40000000F83F61436F63A787D23F71A3790902
:102C50004F930A400000E03F1655B5BBB16B0240F0
:102C6000EF39FAFE422EE63F00002C4000002440DF
:102C700000001840FF030000FFFFEFFFFFF7FFFF1A
:102C80002D431CEBE2361A3F0A9A289B14009B073F
:102C900015D1042F13D9B2464646151FED19BB4670
:102CA000099F0B95330039002020089D541CA8472C
:102CB0000B9B22009C42F5D1B0465F4656464D4BD9
:102CC00049469A464346B94622000425A346B046E3
:102CD0001F000B915346013D541C585D09993B0060
:102CE000089EB0472200002DF4D13B005C460B9AB1
:102CF000464698460D9B4F469146221D002B00D11B
:102D0000FCE60A9BD31A9F4200D8F7E6B346464634
:102D1000BA46099F330039002020089D541CA8475B
:102D20000A9B2200E31A9A45F4D8B0465E46E5E6CF
:102D30004A469B1A013B26934AE700222E4B5046F7
:102D4000594602F0A3FA002800D03BE755E70A9B5A
:102D5000289A9A46920717D1032F15D9B2461A001E
:102D60004646DC1EE419BB46099F0B94330039002C
:102D70002020089C551CA0470B9B2A009D42F5D1A2
:102D8000B0465F465646AA461C4B49469B464346BC
:102D9000B94652460324B0461F000B915B46013CE6
:102DA000551C185D09993B00089EB0472A00002C6D
:102DB000F4D13B000B9A4F46914652464646984600
:102DC0000D9B0332002B00D198E60A9BD31A9F4239
:102DD00000D893E6B3464646BA46099F3300390009
:102DE0002020089D541CA8470A9B2200E31A9A45FC
:102DF000F4D89AE77C64001080842E417864001037
:102E0000F0B5DE4657464E464546E0B597B005005C
:102E10000E0093461F00209A219B1000190002F01B
:102E200048FA002800D0AEE2209821990122C54B33
:102E3000524202F02BFA002800D034E12098219968
:102E40000122C14B524202F02FFA002800D0C1E00B
:102E5000209821990022BD4B02F026FA002800D0CC
:102E600008E1209821990022B94B02F00FFA0028BE
:102E700000D0FFE0209821990022002302F006FAFA
:102E8000002800D074E200230D938023249ADB00F5
:102E90001A40904600D0BAE10023AE4C0693079446
:102EA0000EAB06249A462098219902F02DFA09903B
:102EB00002F012FA02000B002098219902F073F937
:102EC000069A079B02F09FF90A900B9102F040FAD4
:102ED00081460C9002F0FCF902000B000A980B9955
:102EE00002F061F900229C4B0A900B9102F0DCF990
:102EF000002800D1E5E14B46013318000C9302F0A5
:102F0000E7F9069A079B02F0C7F9002800D0FBE119
:102F1000002C00D09CE1099C200002F0DDF90200A9
:102F20000B002098219902F03EF900228A4B06906E
:102F3000079102F0ABF9002800D1D5E14346202BE0
:102F400000D112E15C1C099B0A211800994601F08E
:102F5000C7FE424653463031995448460A2101F093
:102F6000BFFEA046814600281ED05346A846BA465A
:102F70004D461F00B14600E03400202C00D162E233
:102F800028000A2101F0ACFE661C30313C1921708A
:102F900028000A2101F0A4FE051EEDD13B004546A4
:102FA0005746B0469A464E460323249A1340012BB7
:102FB00000D1B1E142462024202A00D1DCE00D9A64
:102FC000002A00D135E242465146541C40462D228B
:102FD0000A54D1E0249B5B0700D5ADE05F4B9A46D5
:102FE000032398465B460693249B9B0718D1239B9B
:102FF000434500D84EE25B441C004346E41AB94600
:103000005A4637002E002500541C4B46390020201C
:10301000B0472200AC42F7D135003E004F4606943F
:10302000B14644465646BA462F00069A013C551C06
:10303000305D53464946B8472A00002CF6D1069B1E
:103040003D0043441A00249B9B0724D55B462399EB
:10305000D31A99421FD92E00D0464F460D00434641
:1030600039002020541CB0475B462200E31A9D42E1
:10307000F5D810E0249B5A460493239B3100039318
:10308000229B28000293209B219C009301943B00EB
:10309000FFF700FC0200100017B03CBC90469946B8
:1030A000A246AB46F0BD249BD8469B0718D1239B74
:1030B000042B15D95B461C1F239BB8469C466444D1
:1030C00037005A462E002500541C43463900202064
:1030D000B0472200AC42F7D135003E004746A0463B
:1030E0001F4BB9464246370004249A462E005346E9
:1030F000013C551C185D39004B46B0472A00002C96
:10310000F5D14246249B350004323E009B07C2D5D0
:103110005B462399D31A9942BDD93700C8462E0081
:103120000D00434639002020541CB0475B46220066
:10313000E31A9D42F5D8AEE70A4B9A460423984617
:1031400050E7C046FFFFEFFFFFFFEF7F65CDCD41AA
:1031500065CDCDC180842E410000E03F8C6400101D
:103160007C64001084640010A2460323249A134058
:10317000012B00D1CEE02024D846002B17D1239B71
:103180009C4214D25B441B1BB8465A463700A146EA
:103190002E001D00541C434639002020B047220059
:1031A000AC42F7D135003E004746A0464C46434668
:1031B0004246A146B84637002E0006935346013CCE
:1031C000551C185D39004346B0472A00002CF5D144
:1031D00006994B468C4663441A00249B35003E00FA
:1031E0009B0700D457E75B462399D31A994200D82E
:1031F00051E737002E000D00434639002020541CB3
:10320000B0475B462200E31A9D42F5D843E7229B74
:10321000092B00D85BE10EAB9A463023524613705F
:1032200001229046229B2F325C1E4146203B504695
:1032300005E0013C425401319C4200D1EEE0092CF2
:10324000F7D10022A84B88468246069207932AE6C9
:103250004346202B89D0631E069301230C9C4344D4
:1032600020000A21994601F063FD53464246303161
:10327000995420000A2101F05BFD041E00D122E1D7
:10328000A84625004C46B9465746B24612E0069B72
:103290002800013B0A21069301F04AFD661C3031EB
:1032A0003C19217028000A2101F042FD051E00D1C1
:1032B000CFE03400202CEAD156464546BA464F4668
:1032C00053E700220A980B99884B01F0DFFF002892
:1032D00000D01DE60C9B002B02D0DB0700D417E6C4
:1032E0000C9B01330C9313E60022069807997F4B41
:1032F00001F0DAFF002800D020E60123A446234095
:103300009C446346099319E6099B01330993002302
:103310000C93FDE520239846239B002B00D1BFE0B2
:103320000D9B002B03D1249A0C33134202D0239B14
:10333000013B2393239B434500D8B1E04246302311
:10334000202A00D1B1E0424650462399541C8354B0
:103350008C4200D1A1E02200202CF7D120239946F5
:103360005B46B8468246370006935A462E0025E74C
:10337000209A219B0020002101F015FF01232090BD
:1033800021910D9381E5249BD8469B0718D1239B5F
:10339000032B15D95B46DC1E239BB8469C46644430
:1033A00037005A462E002500541C43463900202081
:1033B000B0472200AC42F7D135003E004746A04658
:1033C0004B4BB9464246370003249A462E005346DB
:1033D000013C551C185D39004B46B0472A00002CB3
:1033E000F5D14246249B350003323E009B0700D4B2
:1033F00051E65B462399D31A994200D84BE6370031
:10340000C8462E000D00434639002020541CB0470A
:103410005B462200E31A9D42F5D83CE6354BE200BC
:103420009B181A685B680692079320238246984689
:1034300039E5249A52073BD542465146541C404632
:103440002B220A5498E63B00454657464E469A467C
:103450008BE64546B0465646BA464F464346202B75
:1034600000D182E6069B40461A00424411005446B1
:103470003022002B29D0431C2254202B00D173E68C
:1034800018008B42F7D1A2465A1C904651462E2274
:10349000CA5453E55B460693C2E5239B8246984691
:1034A00042460123202A00D089E52024D8467EE622
:1034B000249A4446120700D45EE620225146404634
:1034C00001340A5458E6C846C8E74346DCE7DA0048
:1034D000084B9B185C681B6806930794002398466A
:1034E0000EAB229C9A46DEE465CDCD410000E03F64
:1034F0007864001090640010F0B557464E4645467B
:10350000DE46E0B597B00792012206000F00209832
:10351000219998465242CF4B01F0C6FE00284DD06B
:10352000249B5B0700D541E1CB4B9A4603239B4686
:10353000079A249B14009B0711D1239B9B450ED215
:10354000190013008C4663441D005B46ED1A541CA1
:10355000434639002020B0472200AC42F7D1B9469B
:10356000220037005D465646A246013D541C705D60
:1035700043464946B8472200002DF6D15246249BC7
:103580003E005A444F469B0710D507992398531A7B
:1035900098420BD989460500434639002020541C27
:1035A000B0474B462200E31A9D42F5D8100017B0F1
:1035B0003CBC90469946A246AB46F0BD00222098FE
:1035C0002199A64B01F070FE002800D0F3E020986E
:1035D00021990022A24B01F059FE002800D0EAE018
:1035E000209821990022002301F050FE002800D0ED
:1035F00092E100230D938025249BED001D4000D017
:1036000017E10023974C089309940EAB06249B46C0
:103610002098219901F078FE81460C9001F05CFE23
:1036200002000B002098219901F0BDFD089A099B2A
:1036300001F0E9FD0A900B9101F08AFE824601F04B
:1036400047FE02000B000A980B9901F0ACFD002226
:10365000854B0A900B9101F027FE002800D148E12C
:1036600001239C46E244504601F032FE089A099B31
:1036700001F012FE002800D09CE1002C00D006E1F1
:103680000C9C200001F028FE02000B0020982199DC
:1036900001F089FD0022744B0890099101F0F6FDBC
:1036A000002800D176E1202D00D1BAE00C9B0A2140
:1036B0001800994601F014FB5B46303159554846D5
:1036C0000A2101F00DFB6C1C8146250000281AD050
:1036D0004D46BA46B1465F4600E03400202C00D18A
:1036E00003E128000A2101F0FBFA661C30313C1985
:1036F000217028000A2101F0F3FA051EEDD13500F2
:10370000BB464E4657460323249A1340012B00D153
:103710000EE12024202D0BD00D9A002A00D034E198
:10372000249A520700D46FE12B2259466C1C4A554B
:10373000079A1500002B12D1239B9C420FD219002F
:1037400013008C4663441B1BA1461C00551C4346BA
:1037500039002020B0472A00A542F7D14C46A246A6
:10376000A9462A005B46013C551C185D39004346BA
:10377000B0472A00002CF5D14B4653441A00249B35
:103780009B0700D412E707992398531A834200D36A
:103790000CE789460500434639002020541CB047F9
:1037A0004B462200E31A9D42F5D8FFE62F4B9A467E
:1037B00004239B46BCE6209A219B1000190001F0CF
:1037C00078FD00281AD1209821990122284B5242D5
:1037D00001F05CFD002811D1249B079A0493239BE0
:1037E00039000393229B30000293209B219C00937D
:1037F00001944346FFF74EF80200D7E6249B079A50
:103800000493239B39000393229B30000293209B57
:10381000219C009301944346FFF7F2FA0200C5E6AB
:1038200083460323249A1340012B00D17FE02024F8
:103830007EE7229B092B00D8F2E00EAB9B4630239B
:103840005A461370229B01255C1E3022203B5946AC
:1038500015E0C046FFFFEF7F8C64001065CDCD41C1
:1038600065CDCDC180842E410000E03F846400100E
:10387000FFFFEFFF013C4A5501359C427BD0092CEC
:10388000F8D100226C4B8B4608920993C0E6202D9C
:10389000C7D06B1C50460A21994601F049FA5B4695
:1038A0003031595550460A2101F042FA013C824616
:1038B000002800D1B2E04B465546B146BA465F46B5
:1038C00011E09B4628000A215E1CBB4401F030FA3F
:1038D0005B463031197028000A2101F029FA013CB9
:1038E000051E76D03300202BEBD1BB464E46574603
:1038F00097E700220A980B99504B01F0C7FC00286B
:1039000000D0BAE65346002B02D0DB0700D4B4E661
:1039100001239C46E244B0E6209A219B002000212E
:1039200001F041FC0123209021910D9363E62025B5
:10393000239B002B46D00D9B002B03D1249A0C33E4
:10394000134202D0239B013B2393239BAB4239D9E3
:103950003023202D3AD05946239A6C1C4B55944263
:103960002ED02500202CF8D12023079D8B469A4687
:10397000A9462A00F6E6324BE2009B181A685B68FB
:103980008B4608920993202542E62D2259466C1C4D
:103990004A55CDE6002208980999284B01F084FC8D
:1039A000002800D07FE60123A44623409C446346C0
:1039B0000C9378E64B4601330C9300239A465CE661
:1039C0008B46239D0123202D00D0A5E62024079DB2
:1039D000C5E63500BB464E465746202D00D120E7B0
:1039E000611930222B00002C09D058466B1C42551F
:1039F000202B00D114E71D008B42F7D183462E22E5
:103A000059465D1CCA544EE6249A2C00120700D475
:103A10008EE62022594601344A5589E64D46DCE7B8
:103A2000DA00074B00259B185C681B680893099413
:103A30000EAB229C9B46EBE565CDCD410000E03FFF
:103A400090640010F0B5DE4657464E464546E0B558
:103A5000A9B01E00329B90460A93BF4ABF4B8346D3
:103A60008A461A60002968D0D1460025DA463078A7
:103A700000280BD0013625281BD02A004346494692
:103A8000D04730786C1C25000028F3D1D3462A009B
:103A9000CA46454501D343465A1E43465146002077
:103AA000D847280029B03CBC90469946A246AB4670
:103AB000F0BD102330789B460E3B9C460300203B14
:103AC000721CDBB20027A64C1100102B0DD89B00F6
:103AD000E3589F46012316001F433078721C0300F1
:103AE000203BDBB21100102BF1D90300303B092B36
:103AF00000D8AEE100239B462A2800D1CFE1002464
:103B00002E2800D1BDE10300683BDBB2122B00D9A7
:103B1000D3E3944A9B00D3589F46042316001F43C7
:103B2000DBE7634616001F43D7E75B4616001F43DB
:103B3000D3E7082316001F43CFE78B4B9B4693E741
:103B400080235B0070781F434E1C0300253BDBB2D3
:103B5000532B92D8854A9B00D3589F4670786C2887
:103B600001D100F0C0FC80235B001F434E1CECE73A
:103B700080239B0070781F434E1CE6E7707868280E
:103B800001D100F019FD80234E1C1F43DDE74628BC
:103B900001D100F058FC07220A9B04970733934396
:103BA000013294469C4462460A925A460294039219
:103BB0005C681B682A0000930194494643465046BE
:103BC000FFF71EF9050052E72A006C1C43464946E0
:103BD0002520D04725004AE70A9B1A1D1B680C9236
:103BE0000A931878002C00D0ABE3002801D100F034
:103BF000A2FF02211A00494201239C464346089035
:103C00000B9307E00A98634680469B1A43445B186F
:103C1000002B03D001321378002BF3D10B9B0898B3
:103C200098460A9BD31A08938023DB003B400B93F2
:103C300003D0089BA34200D9089402231F4001D15E
:103C400000F0DBFC002801D100F0BCFC0B9B002B3A
:103C500001D000F062FE0A9B2A005C1B2300544640
:103C6000B2464E46B946474698463B003100551C81
:103C7000A0474346585D2A000028F6D1B8464F4673
:103C8000B1465646A246002F01D000F09BFC0C9B8B
:103C90000A93ECE60A9B1A1D1B689346002B00D181
:103CA00042E3212217430A970F2020A90B940022F8
:103CB000089184460C0002E020290CD00A006146DD
:103CC0001940CFB238003730092900D80738511CC5
:103CD000A0541B09F0D10B9C0A9B01910693082369
:103CE00005930833039300230293089B2A00009353
:103CF0000494434649465046FEF794FC5B46050053
:103D00000A93B4E60A9B6C1C04330B940893BB071C
:103D100000D478E30A9B2A00187849464346D047E6
:103D20005B465D44012B01D800F07EFE2B00574618
:103D30004D46B146464698460B9A541C330029001E
:103D40002020B84722004445F7D1B046BA464E4637
:103D5000A946250073E3C046453A00101804002028
:103D600098620010DC620010052600102863001025
:103D7000782800D1ECE2582801D100F067FC6F28C8
:103D800001D100F051FD622801D100F04FFE102357
:103D90003A009A430B92692801D000F039FF7B0565
:103DA00001D500F02BFD80239B001F40F73BFF3B1C
:103DB0000C93002F01D000F0C3FC80230B9A5B0012
:103DC0001A40130094460A9A04320D92002B01D037
:103DD00000F0CAFD0B9B5B0601D400F0BCFD0A9B02
:103DE0001B78DA1798185040DA0F0A92002B08D186
:103DF0000B9A1033110099430B91520501D500F035
:103E0000A2FE0B9B61279B0600D541275A4620AB9B
:103E1000FFB20E950F94B34608930A3F6446109282
:103E20000C9D1E000CE03033DBB2621C33550028C1
:103E300001D100F017FC202A01D100F013FC14007E
:103E4000290000F075FFCBB20929ECD9DB19DBB2F0
:103E5000EBE70023010001E0160001329800C018D2
:103E6000400040181178030008003038303B092822
:103E7000F2D908009B46B11C002416002E2800D061
:103E800041E680237078DB001F430300303B092BA1
:103E900015D92A2800D1DAE20E00013133E60A9959
:103EA0000B1D09688B46002904DA02210F4359468D
:103EB00049428B467078B11C0A9316001FE6030036
:103EC00000E03100A00000194000C0184B783038E5
:103ED0001A00303A4E1C0400092AF2D918000231A7
:103EE00011E6202302009A43472A02D180231B01B6
:103EF0001F4302239843452801D11E331F43072245
:103F00000A9B07339343013294469C4462461968E6
:103F10005868089109900A9203000A000B910C90CE
:103F20000898099901F0C5F9002800D09BE2012208
:103F3000E34B52420B980C9901F0B6F90122E14B88
:103F40005242002800D0D5E20B980C9901F09EF95E
:103F5000002800D0A2E3002200230B980C9901F066
:103F600095F9002801D000F055FD0B9A0C9B0892A2
:103F70000D938023DB003B40179300D10624802360
:103F80000D9A1B013B400E93130008990F910B43B0
:103F900001D100F0B6FCCC4B50009C46400D604473
:103FA00001F09AF9C94ACA4B01F02DF9C94ACA4B26
:103FB00001F002F90D9A109011911303C74A0F995D
:103FC0001B0B1A431B921A9100221A981B99C44B7F
:103FD00001F0E9F8C34AC44B01F015F902000B00E7
:103FE0001098119901F0E8F801F08EF90F9001F0A6
:103FF00073F9BE4ABE4B1090119101F004F90022F2
:10400000BC4B01F0D9F801F07FF9BB4ABB4B1690CD
:104010001098119901F0F7F810901191169801F08D
:104020005BF9B74AB74B01F0EEF802000B001098AD
:10403000119901F0B8F802000B001090119101F0F5
:10404000E2F8149015911098119902000B0001F0FC
:10405000B3F800221E901F9114981599AA4B01F0F5
:10406000B4F80022A94B01F0A7F802000B00149845
:10407000159901F0AAF80022A54B01F09DF8020065
:104080000B001498159901F0A0F8109A119B149048
:10409000159180210020C90501F085F802000B0070
:1040A0001498159901F088F802000B001E981F99CA
:1040B00001F08BF80022894B01F07EF8169B1A0064
:1040C000944B9C46624413051D9300231C931C9A39
:1040D0001D9B01F098F81490020016910B000898AF
:1040E0000D9901F0D3F800280AD00F9B1498013BDA
:1040F0000F9316990022854B01F067F814901691E2
:10410000C6230F9A633293429B415B420433109360
:104110000E9B002B1DD0169B149A134301D100F067
:10412000C1FC7D4A7D4B08980D9901F0B5F8002837
:1041300009D000227A4B08980D9901F0A7F80028C1
:1041400001D000F0AFFC002C03D0179B5A1E934106
:10415000E41A00230E93109B9B4502D95A46D31AAA
:104160000E9302233B40179306D0109B5A425341B3
:104170000E9A5B421A400E920F9B002B07D00898B4
:104180000D99149A169B01F020F808900D910022C9
:1041900000230B980C9901F079F8002805D08020B5
:1041A000000684460D9961440D910D99089A0B0003
:1041B000089801F07EF8002801D000F0E2FC01220E
:1041C000404B524208980D9901F060F8002801D048
:1041D00000F075FC534B089A3B4004930E9B0294ED
:1041E00003930D9B49460092019350462A00434693
:1041F000FFF782F90200109B002B00D170E1202014
:1042000007403B0059424B4100275B42511C18407C
:104210000B91434649464530D0470F9A109BD11722
:10422000013B54180D93D20F20AB0E954C403D002E
:104230000C9208930F961F0002E03500202E0DD03F
:1042400020000A2100F074FD6E1C30317D192970A8
:1042500020000A2100F06CFD041EEED10523069318
:104260000D9B32000593002304930A3303930C9BA8
:1042700001920293089B0B9A00934946434650468D
:104280000E9D0F9EFEF7CEF9179B0200002B00D16A
:1042900026E1431B9B4500D822E15C465746531C50
:1042A0009A46494643462020B8475246531B9C42F3
:1042B000F5D8BA461500FFF7DAFB0E0045E4C04614
:1042C000FFFFEF7FFFFFEFFF01FCFFFFFB799F5038
:1042D0001344D33FB3C8608B288AC63F0000F03F29
:1042E0000000F83F61436F63A787D23F71A379094C
:1042F0004F930A400000E03F1655B5BBB16B02403A
:10430000EF39FAFE422EE63F00002C400000244028
:1043100000001840FF0300002D431CEBE2361A3F5B
:1043200080842E41FFF7FFFF1022390091431132A4
:1043300011430A917A0500D4B6E420AB002108931A
:10434000CAE4002801D100F0F6FB611E1A0053E414
:1043500080231022DB003B400C920C2297430B97EA
:104360003A00002B02D001239A430B9280270B9B2B
:10437000BF001F40692800D11BE5642800D118E563
:10438000002F00D07CE280230B9A5B001A401300C0
:1043900094460A9A04320D92002B00D050E30B9BF6
:1043A0005B0600D445E30A9B1878002807D10B9AD6
:1043B0001023110099430B91520500D5BFE30B9BCD
:1043C00061279B0600D5412720ABFFB20A950E94CA
:1043D0000F9608930A3F65460C9C1E000AE0303396
:1043E000DBB26A1C7355002800D111E2202A00D1EB
:1043F0000EE21500210000F09BFCCBB20929EED99A
:10440000DB19DBB2EDE75B46012B00D8A7E36B1E9F
:104410009B4433005E469B4601E025000134434641
:104420002A00494620202700D047B442F5D15E46F5
:1044300002350A9B3A00187849464346D047089B04
:104440000A93FFF714FB20231F43FFF7A4FB0A9AEC
:10445000B0781468F11CE343DB171C40131D0A936A
:104460000236FFF750FB2C00BB0710D15B46032B35
:104470000DD9EC1E23002A005B44089343464946AD
:104480002020541CD047089B22009C42F6D10323D5
:104490000893DC4B22000B932B003D001F00089B70
:1044A0000B98511C013B0C910893C05C4946434654
:1044B000D047089B0C9A002BF2D13B002F00E21C46
:1044C0001D00BB070CD5531B9B4509D95F46541CE7
:1044D000434649462020D0472200631B9F42F6D81E
:1044E0001500FFF7C4FAC0239B00B0781F430336C2
:1044F000FFF72BFB0B980C9900F0C8FE002800D0AA
:10450000CCE07B0700D46BE2BF4B089304230C93F1
:104510000B95BB071CD10C9B9B4500D82DE35A463D
:104520005419E41A33002A004E46A94655469A46C5
:104530000D97571C434631002020A8473A00BC4243
:10454000F7D15346AA464D46B1461E000B970D9F24
:10455000330056469A460B9A0C9C0D95089B013CDD
:10456000551C185D49464346B0472A00002CF5D13A
:1045700053460B99B2468C461E000C9B0D9D63441E
:104580001A00BB07ACD5531B9B45A9D933005C4629
:104590004E4657469946531C9A46310043462020C2
:1045A000B8475246531B9C42F5D84B46BA46B146D3
:1045B00015001E00FFF75BFAC023B0781F430336D7
:1045C000FFF7C3FA089B9B4501D8FFF760FB5A46EB
:1045D0005419E41A33002A004E46574699460135CD
:1045E000434631002020B8472A00A542F7D14B4668
:1045F000BA46B1461E00FFF74AFB089A531C934582
:1046000000D8A8E25B465B199B1A08971F0033008D
:104610002A004E46A14654469A460135434631008B
:104620002020A0472A00BD42F7D15346A2464C465F
:10463000B1461E005B460133089F08930A9B187819
:10464000002801D0FFF702FBFFF721FB0C233A0003
:104650009A4314331A430B927B0500D4C7E010230E
:104660000C9380E6109B5E469B460E9D0F9C0B9B19
:10467000049406935B4605930C9B03930A9B029359
:10468000089B019200932A00434649465046FDF795
:10469000C9FF0D9B05000A93FFF7E9F90B95BB07CE
:1046A0001BD15B46042B00D8B0E233002C1F2A003C
:1046B0004E46A94655469A465C440897571C4346C1
:1046C00031002020A8473A00A742F7D15346AA4616
:1046D0004D46B1461E000B97089F4C4B042408938F
:1046E00033004E46B94657469A460B9A0C95089B9E
:1046F000013C551C185D31004346B8472A00002C88
:10470000F5D15346BA464F460B9AB1460C9D1E0052
:104710000432BB0700D4E3E6531B9B4500D8DFE619
:1047200033005C464E4657469946531C9A46310024
:1047300043462020B8475246531B9C42F5D834E7E5
:1047400007220A9B07339343013294469C446246F6
:104750005F680A921A68FB171893199318981999A9
:104760000300534012930B007B4013939446129A1C
:10477000139B121A8B41129213936246FB0F1493F0
:104780003A4307D10B9A1023110099430B9152051C
:1047900000D5E7E10B9A6123920600D54123DBB2F5
:1047A00020AA0A3B0E950F9410960027129C139D89
:1047B00008920D930C9E0CE03032D2B2089C7B1C08
:1047C000E255020004000D000A433FD0202B3DD0EB
:1047D0001F00320000232000290000F0E7FAD2B2C7
:1047E000092AE9D90D9B9C466244D2B2E6E78023B0
:1047F0009B001F40F13BFF3B0C93C1E50A230C9348
:10480000B1E5C04678640010846400107C64001038
:104810000A9D0E9C0F9E0B9B049406935B4605938A
:104820000C9B039300232AE708230C938023DB00CF
:104830003B40642800D090E53A000B97002B00D055
:1048400091E58027BF001740FFF7B3FA1294139544
:10485000109E0F9C0E9D0B9A049406925A46059248
:104860000C9A01930392149A0292089B2A000093D7
:10487000494643465046FDF7D5FE0500FFF7F7F8D9
:1048800007220A9B07339343013294469C446246B5
:1048900003CB03000A920B4307D10B9A1033170086
:1048A0009F430B97520500D563E10B9A6123920653
:1048B00000D54123DBB220AA0A3B0E950F940027B6
:1048C00008920D930C9C109615000CE03032D1B27A
:1048D000E95518007A1C3100334300D185E0202AC5
:1048E00000D182E017002200002300F05FFAD2B26C
:1048F00003000E00092AE9D90D998C466244D1B211
:10490000E6E70E9B002B00D0C7E00D9B1491169399
:104910000423109300230F931BE40A9B64195B1B71
:104920000A9333002A004E46B94657469A4608E095
:1049300043463100551CB8470A9B585D002862D099
:104940002A00A242F4D153461500BA464F46B1465A
:104950001E00FFF798F90B9B1B0600D4F7E00A9B9B
:1049600000229B5EFFF73DFA0A9B1B68DA17981836
:104970005040DA0F0E92002B06D10B9A1033110023
:1049800099430B9152051FD40B9A6123920600D5CF
:104990004123DBB220AA0A3B08920A9309E0303394
:1049A000DBB208997A1CCB55002810D0202A0ED0F3
:1049B00017000C9900F0BCF9CBB20929EFD90A9A7B
:1049C00094466344DBB2ECE7002220AB08930B9BD8
:1049D000049406935B4605930C9B03930E9B4EE653
:1049E0008D4B089303230C9392E50E9D0F9C109E14
:1049F0000B9B049406935B4605930C9B01920393D7
:104A00000023029331E75346BA464F46B1461E0093
:104A1000FFF739F98022120694460B9B08930C9BF2
:104A200063440D93FFF7A5FA250008E502230C93D4
:104A3000FCE60B9B1B0600D498E00A9B1888B4E4A4
:104A40000A9B1868002806D10B9A1023110099437D
:104A50000B91520573D40B9A6123920600D5412322
:104A6000DBB220AA0A3B08920A930BE03033DBB298
:104A700008997A1CCB55002800D1CCE6202A00D119
:104A8000C9E617000C9900F053F9CBB20929EDD90A
:104A90000A9A94466344DBB2EAE70D9B149116939D
:104AA00000230F930F9B9C4257DDE41A013C8023A7
:104AB000DB001F43002310930F93FFF74AFB0B9576
:104AC000BB070FD10E9B042B59D99C462A002C1FE3
:104AD0006444531C0B93494643462020D0470B9A0D
:104AE0009442F6D104244D4B0B9A08930C97089BE3
:104AF000013C571C185D49464346D0473A00002CFC
:104B0000F5D10B9A179B0C9F0432002B01D1FFF7B4
:104B100072FB0E99531B8B4201D3FFF76CFB43468C
:104B200049462020541CD0470E992200631B8B421B
:104B3000F5D3FFF760FB00230893FFF775F820AB70
:104B40000022089367E620AB002208938FE50A9BBA
:104B50001B68FFF746F9089372E50024A7E72F00CA
:104B6000250066E420AA0023089274E60A9B1868D0
:104B70001BE420AB002208933AE70B95E8E40B9581
:104B8000B0E72C00BB0710D10E9B032B0DD99C4620
:104B90002A00EC1E64440894434649462020541CD5
:104BA000D047089B2200A342F6D1032308931C4B55
:104BB00022000B932B003D001F00089B0B98511CFB
:104BC000013B0C910893C05C49464346D047089B83
:104BD0000C9A002BF2D13B002F001D00179BE21C0A
:104BE000002B01D1FFF707FB0E99531B8B4201D31A
:104BF000FFF701FB434649462020541CD0470E993D
:104C00002200631B8B42F5D3FFF7F5FA0B9564E5A1
:104C1000063B17000C9309E68C6400107C640010BE
:104C20007864001000B585B00391012102900093D3
:104C3000034813004A4202A9FEF704FF05B000BD75
:104C40000926001010B5094A84B01468002C09D058
:104C5000012200910300524203A90548A047012008
:104C600004B010BD00F0E8FF0020F9E718040020B0
:104C70001926001001480421014B1847100200209A
:104C8000A54C0010142310B50100188804331B88AC
:104C9000984710BD162310B50100188802331B88F1
:104CA000984710BDF0B5C64600B5002916D01423AC
:104CB00004000125984618278900461843462168B4
:104CC00018883B88984701C4431E984140420540DC
:104CD000A642F3D1280004BC9046F0BD0125F9E7B7
:104CE000124A936F9B0815D29066D166002905D0B1
:104CF000FFE7FFE7FFE7516F106F704704B58021B2
:104D00000906C2175140002800D0C84301F098F9A5
:104D1000002104BDF0B5146E556E576F166FFFF786
:104D2000E3FF1466556657671667F0BD000000D0B4
:104D3000114A936F9B0813D210665166002905D063
:104D4000FFE7FFE7FFE7516F106F704704B50028DA
:104D500001D00020C04301F073F9002104BDC0461A
:104D6000F0B5146E556E576F166FFFF7E5FF1466BA
:104D7000556657671667F0BD000000D094464A4A52
:104D8000926F9208624601D228E0C046F0B5464EC6
:104D9000346E756E776F366F00F020F89446424A95
:104DA00014665566576716676246F0BD94463E4ADC
:104DB000926F9208624601D254E0C046F0B53A4E76
:104DC000346E756E776F366F00F04CF89446364A45
:104DD00014665566576716676246F0BD002B24DBE4
:104DE00011D000293EDA00B5C943404200D101315B
:104DF00000F038F8C943404200D10131DB43524250
:104E000000D1013300BD002AEBD1002801D10029D7
:104E100005D00020C90FC90701D1C043410800B522
:104E200001F006F90022002300BD00B500290ADBCD
:104E3000DB43524200D1013300F014F8C943404231
:104E400000D1013100BDC943404200D10131DB43F3
:104E5000524200D1013300F005F8DB43524200D149
:104E6000013300BD002923D1002B18D1002A0CD01A
:104E7000BC460D4F38667A6600210023FFE7FFE746
:104E8000FFE77A6F386F67467047002801D0074800
:104E9000010000B501F0CCF80022002300BD0200A3
:104EA0000B00002000217047000000D0FFFFFFFF33
:104EB000002B00D0BFE0130C28D1002AE7D080B42B
:104EC000114F39667A66FFE7FFE730B4040C7B6F59
:104ED000396F1B0423433B667A66FFE7FFE7FFE772
:104EE000C04684B27B6F3D6F1B0423433B667A66EA
:104EF000FFE7FFE7C04600232C042D0C7A6F386FC4
:104F000000196941B0BC7047000000D0F0B594466C
:104F10000025140E01D112020835140F01D112011F
:104F20000435940F01D192000235D40F01D1520003
:104F30000135D40B0134254F7C66254C3C660E0CA4
:104F400093B2FFE7FFE7FFE73C6F6643360C77035A
:104F5000BE467343DF0B5B04C01AB941130C7343A5
:104F6000DB18C91ACE086643360CB64493B27343B5
:104F70001F0F1B01C01AB941130C73431F0B1B05F4
:104F8000C01AB941860D8F023E436643360C092D87
:104F900024DB520A7243801A7703460A6643360CB2
:104FA00016235B1BDE40DF40BF1964466643821B4D
:104FB0007046043506330100D940A840C01900D31B
:104FC0000131A24206D20023F0BD0000000000D053
:104FD000FFFFFFFF121B0130F3D3F1E709277F1B0F
:104FE000FE406446A2B27243801A00D20139220CFC
:104FF0007243130C1204821A99410B007046043557
:1050000013370100F940A840801900D30131002B6B
:1050100002D1A2420AD2F0BD013000D30131121BED
:10502000FAD2013BF8D1A24200D2F0BD013000D348
:105030000131121BF7E7F0B51C0C00D080E00CB476
:1050400000251C0A04D11B02160E33431202083538
:105050001C0B04D11B01160F3343120104359C0BAA
:1050600004D19B00960F334392000235DC0B02D132
:1050700092185B4101351C00971864410134464F7A
:105080007C66464C3C660E0CFFE7FFE7FFE7C04638
:105090003C6F6643360C7703BE4697B27743C01B1E
:1050A00000D20139C01B00D201399FB27743C91B1E
:1050B000C91B170C77437E04FF0B801BB941CE0838
:1050C0006643360C0C2D33DBB644120B1F053A43F6
:1050D0001B0B97B27743C01B00D201399FB27743B5
:1050E000C91B170C77433E043F0C801BB941860D4A
:1050F0008F023E43664329277F1BFE400C3D7746C7
:10510000AF40BF1930BCA2B2ABB272437343801A36
:105110009941220C7243130C1204801A9941020027
:105120000B000137001BA941F9D2781E0021F0BD08
:105130000C277F1BFE4077467F0BAF40FF19E0E74F
:1051400000245D1C07D0144F7D663966FFE7FFE73A
:10515000FFE7FFE73C6F95B29EB265436643401B95
:10516000B141150C1E0C6543664336042F0C3E43BB
:105170002D04401BB141994204D202000B002000D3
:105180000021F0BD01D19042F7D3801A994101343A
:105190009942F2D3F6E70000000000D0FFFFFFFFC6
:1051A00048404140484018B41B4B5B68FC460193A3
:1051B00008BD04DFFB53001018B4174B1B68FC46F6
:1051C000019308BD00DF055400109446134A926F06
:1051D000920809D2624618B40F4BDB68FC46019373
:1051E00008BD0CDFBD5600100C4AF0B5146E556EAC
:1051F000576F166F6246FFF7EEFF084A1466556652
:1052000057671667F0BD18B4034B9B68FC460193C3
:1052100008BD08DF6155001054040020000000D0D4
:10522000FFB550404240504059404B40594000E08B
:10523000FFB5154F4C00640D03D0BC4204D10C03E4
:1052400014D80020090D09055C00640D03D0BC4290
:1052500004D11C030AD800221B0D1B0501264B405C
:1052600009D44B4003D58B4200D18242FFBD994205
:10527000FCD19042FFBD0B43DB1803431343F5D031
:10528000C9434918FFBD0000FF07000000B5FFF744
:10529000CFFF804100BDC04600B5FFF7C1FF01D977
:1052A000002000BD012000BD00B5FFF7B9FF80411F
:1052B00000BD012040054A00121804D85A001218F7
:1052C00001D800207047012070470020704700007F
:1052D0000021002805D17047C1174840401AFAD074
:1052E000C90713B5064B1B6898470CBC441CA24069
:1052F0001005120B0349091B09051943114310BD81
:10530000300400201F04000010B54C00620D802303
:10531000D218DB00D21A5B057E2A10DD9E3A13DA22
:10532000CC170903490819435242D14064000134A3
:105330001532202A05DAD0400843604310BD002012
:1053400010BD0846604310BDC80FC018013810BD1D
:1053500018B4044B5B6AFC46019308BD24DF6D580A
:105360000010000054040020132370B51C78012C99
:1053700011D01ADD0F48FFF78DFC0F4D0100802280
:10538000280000F03DFB022C10D00C48FFF77AFCFF
:105390000B4B186070BD084D0A4A29002B00803164
:1053A00004C38B42FCD1AA64EFE7034D054AAA640B
:1053B000EBE7C04653440000540400204C33000087
:1053C00030040020C953001007B5604601880A0A5E
:1053D0000230DF2AFAD1C9B2820804D30288408899
:1053E0000004104300E00068014A5050039007BDDC
:1053F000540400200FB403BC0CBCF0B50124E40736
:10540000634000E0F0B50C0DCF0F661E3605891B1A
:10541000640503D3C943404200D30131640D03D076
:10542000661CF60A07D0E41B00207F00791C890760
:105430008912803C24031D0DDF0F6E1E36059B1B59
:105440006D0503D3DB43524200D301336D0D03D00E
:105450006E1CF60A07D0ED1B00227F007B1C9B0709
:105460009B12803D2D032F1B661B58D4A446202E73
:1054700046DA20371400BC401D00BD40F2403341E5
:105480002A4380185941CB0F05D0C943C04300229D
:1054900064425041514162464D0D28D10D0D07D156
:1054A00000281FD0241940414941013A0D0DF9D07F
:1054B000640006D3013000D30131002C01D1400833
:1054C0004000013A0BD4941CE40A04D112051144A3
:1054D000DB071944F0BDD907204B194300E0D90779
:1054E0000020F0BD0029DDD1002CDBD1F0BD013260
:1054F000C6074008CD0728434908002EE1D0D9E768
:105500003C2E29DA203E40371400BC4000D0012454
:10551000F24014431A00BB401C43D317ACE7AC461F
:10552000202F08DA20360400B4400D00B540F840C2
:1055300039412843A5E73C2F0CDA203F40360400D0
:10554000B44000D00124F84004430800B1400C43AB
:10555000C117EAE710001900002494E70000F07F6B
:10556000F0B50C0D661E3605891BE60A6405640D50
:1055700002D0651CED0A04D0002001210905803C01
:105580002403A4461C0D671E3F05DB1BE70A6405C8
:10559000640D02D0651CED0A04D0002201231B0516
:1055A000803C24037740644497B484B296B2744339
:1055B000070C7E43150C6F4380B26843361802D344
:1055C000012000043F183004350C00197D41844649
:1055D00088B29AB250430C0C62431F0C7C438EB2CB
:1055E0007E43921902D301263604A4191604170C1F
:1055F0003618674101BC81B29AB25143040C624330
:105600001B0C5C4380B25843121802D301200004E3
:1056100024181004130C401863412D185E4100201B
:10562000474106BC88B293B258430C0C6343120C3A
:10563000544389B251435B1802D301210904641811
:1056400019041A0C091862416D185641002047418F
:1056500018BCF902720D1143F0026A0D1043ED02FD
:105660000A0D03D16D1940414941013B124E9B1B6C
:105670007600B3420ED26D0007D30130002671418F
:105680006646354301D1400840001B05C918E407B0
:105690002144F0BD0BDA013306D1013004D10131D0
:1056A0004F0D01D04908F2E7E1070020F0BD0136B7
:1056B00031050020EBE70000FF030000F0B51C0DF2
:1056C000671E3F05DB1BE70A6405640D02D0661CFC
:1056D000F60A04D0002201231B05803C2403D025B8
:1056E0002D060026F6432E661E096E66CE0FF619AD
:1056F000B44649004F0D02D07E1CF60A03D00020AC
:105700000021403F3F033E1BB600B444013F7F05EC
:10571000C91B49082E6F013676089C02950D25435A
:105720007543ED137543AD1301356D10F603761B0C
:105730000CB4CC02450D2C43A2B2B3B25A43270C91
:105740007B43350C6F43A4B26C431B1902D3012475
:1057500024043F191C041D0CA4187D4124196D411B
:10576000009A91B2ACB26143170C7C432B0C5F439F
:1057700092B25A43A41802D301221204BF18220481
:10578000230C52187B41019C6C431B19520ED9010A
:105790000A434401A01A81B2B2B2514303145A43DE
:1057A000360C734387B27743D617D21900277E4150
:1057B00036049B191704160C7F185E417316ED18FA
:1057C000F301002680337541A90F06D16400690AF0
:1057D000E8055B0A184309D22FE004229444803381
:1057E0007541A90AA8059B0A184326D3404149419F
:1057F0002404009A019B0D005543641B4343E41AA3
:1058000095B286B27543170C7E43030C5F4392B288
:105810005A43B61802D301221204BF183204330CC3
:1058200052197B4152429C41002C02D4002201308B
:1058300051414008CA071043490802B06246D707E1
:105840009210084BD218084B9A4203D212058918BD
:10585000C919F0BD0020002A01DC3900F0BD013378
:105860001905F5E7FD030000FE070000002200B562
:10587000203200F004F8080000BD000000220B15E3
:105880000AD410B5944600F031F81414013400DA4B
:105890000021CB17144C20470020002170476244A0
:1058A000343A0CD40C2A07DA04009140904052425A
:1058B0002032D440214310BDD843D94310BD2032FB
:1058C00007D40C469440524220321141D04020432C
:1058D00010BD0800C917203203D4524220321041B3
:1058E00010BD1800190010BD9F5800100A0DCC0FF4
:1058F000531E1B05C91A520503D3C943404200D3A6
:105900000131520D03D0531CDB0A07D0121B0020BB
:105910006400611C89078912803A1203014BD21A74
:1059200070470000FF03000051434343C9188C46F1
:10593000110C83B24B4310B4040C614392B280B299
:10594000504362431C041B0C001910BC5941130442
:10595000120CC0185141614470470000132310B568
:105960001C781348FFF796F9012C0BD004DD0100D9
:105970008022104800F044F80F48FFF783F90F4BDE
:10598000186010BD0B4C01005422200000F038F8C4
:105990000B4B6365A365E36523666366A366E366F5
:1059A00023676367A367E3672362E361E4E7C046B5
:1059B00053460000540500204C3300003004002002
:1059C000C559001007B5604601880A0A0230DF2A6F
:1059D000FAD1C9B2820804D3028840880004104377
:1059E00000E00068014A5050039007BD54050020B4
:1059F00001480421014B184720020020A54C00104B
:105A0000014B5B681847000020020020F0B5C64635
:105A100000B5437D06000C001500002B06D103687D
:105A200011002000984704BC9046F0BD002AFADD22
:105A30000A78037D00200A2A2CD00121012D1BD0D9
:105A4000184B984602E03900BD4215D04B1EE25C6F
:105A5000635C4F1C0A2BF6D10D2AF4D033688842C0
:105A600003DA091A201898473368022140469847FC
:105A700038003900BD42E9D1854203DD291A336877
:105A8000201898476419013C23780D3B5A42534132
:105A90003375C8E7002BD0D10248022133689847FC
:105AA0000120CAE740650010F0B54F46D64646468D
:105AB000314BC0B51C680700002C1BD02F4B9846FB
:105AC0002F4B9A4602E02469002C13D02368002B48
:105AD000F9D042461268002A01D0A242F3D1627D79
